:020000040800F2
:1000000068250020AD020008993C0008533600081E
:10001000953C000859080008994E000800000000AF
:10002000000000000000000000000000ED010008DA
:100030005D08000800000000490200083142000885
:10004000C7020008C7020008C7020008C70200086C
:10005000C7020008C7020008C7020008C70200085C
:10006000C7020008C7020008C7020008C70200084C
:10007000C7020008C7020008C7020008C70200083C
:10008000C7020008C7020008C7020008C70200082C
:10009000C7020008C7020008C7020008C70200081C
:1000A000C7020008C7020008C7020008C70200080C
:1000B000C7020008C7020008C7020008C7020008FC
:1000C000C7020008C7020008C7020008C7020008EC
:1000D000C7020008C7020008894E0008C7020008CE
:1000E000C7020008C7020008C7020008C7020008CC
:1000F000C7020008C7020008C7020008C7020008BC
:10010000C7020008C7020008C7020008C7020008AB
:10011000C7020008C7020008C7020008C70200089B
:10012000C7020008C7020008C7020008C70200088B
:10013000C7020008C7020008C7020008C70200087B
:10014000C7020008C7020008C7020008C70200086B
:10015000C7020008C7020008C7020008192D0008DE
:10016000C7020008C7020008C7020008C70200084B
:10017000C7020008C7020008C7020008C70200083B
:10018000C7020008C7020008C7020008C70200082B
:10019000C702000800000000C7020008C7020008EC
:1001A000C7020008C7020008C7020008C70200080B
:1001B000C7020008C7020008C7020008C7020008FB
:1001C000C7020008C7020008C7020008C7020008EB
:1001D000C7020008C7020008DFF80CD000F02AFBB5
:1001E0000048004735580008682500202C4B196846
:1001F0000868B0E8F04F80F30988BFF36F8F4FF0C5
:10020000000080F311887047000000000848006873
:10021000006880F308884FF0000080F3148862B60D
:1002200061B6BFF34F8FBFF36F8F00DF00BF00BF1A
:1002300008ED00E0DFF80C00016841F47001016096
:10024000704700BF88ED00E0EFF30980BFF36F8FC8
:10025000134B1A681EF0100F08BF20ED108A20E91A
:10026000F04F106009B44FF0500080F31188BFF3D5
:100270004F8FBFF36F8F06F0AFFC4FF0000080F39D
:10028000118809BC19680868B0E8F04F1EF0100F1B
:1002900008BFB0EC108A80F30988BFF36F8F7047F6
:1002A00030000020EFF305807047000006488047CB
:1002B00006480047FEE7FEE7FEE7FEE7FEE7FEE74B
:1002C000FEE7FEE7FEE7FEE7B1420008D9010008BD
:1002D0002DE9F05F0546002092469B46884606467B
:1002E000814640241BE0284641464746224600F00E
:1002F0000AFA53465A46C01A914110D3114618467D
:10030000224600F0F1F92D1A67EB01084F4622460C
:100310000120002100F0E8F917EB00094E41201EF2
:10032000A4F10104DFDC484631462A464346BDE8D5
:10033000F09F40EA01039B0703D009E008C9121FA0
:1003400008C0042AFAD203E011F8013B00F8013B8F
:10035000521EF9D27047D2B201E000F8012B491EBB
:10036000FBD270470022F6E710B513460A46044652
:100370001946FFF7F0FF204610BD2DE9FE4F8046DD
:1003800081EA0300C00F0C46009021F0004123F0E9
:100390000045B8EB0200A94105D2404621469046EF
:1003A0001C460B46024623F00040104347D0270D61
:1003B000C7F30A00C3F30A510290401A0190402883
:1003C0006BDAC3F3130040F4801B0098924620B10F
:1003D0000023D2EB030A63EB0B0B01985946C0F1E3
:1003E0004002504600F080F906460D4650465946F8
:1003F000019A00F098F910EB08006141002487EAA7
:10040000115284EAE7731A4340D0009A62B3019A0A
:10041000012A4FEA075215DC001B61EB02014FF085
:10042000004202EA0752CDE90042001C41F580116A
:1004300032462B4600F098F903B0BDE8F08F4046F5
:100440002146F9E7001B61EB0201001C41F5801316
:1004500000185B412018A2F5001747EB030140EAA2
:10046000D570B6196D4111E06D084FEA360645EAC0
:10047000C0754FEA0752001B61EB0201001C41F5F9
:10048000801149084FEA30000019514132462B468D
:1004900003B0BDE8F04F00F058B9009801224000C9
:1004A0000023D0EB020263EBE073009821464FEA91
:1004B000E074B8EB000061EB0401E9E783F000436E
:1004C0005BE781F0004158E72DE9FE4F81EA030424
:1004D00004F0004421F0004100944FF0000B23F0A1
:1004E000004350EA01045ED052EA03045BD0C3F338
:1004F0000A54C1F30A552C44A4F2F3340194A0FB2E
:100500000254C1F3130141F48011C3F3130343F404
:10051000801301FB024400FB034E840A970A44EA5D
:10052000815447EA8357A4FB076802958D0A05FBAF
:1005300007854FEA932C04FB0C542705029D4FEAD4
:10054000065847EA1637B5EB08056EEB070C870E21
:10055000920E47EA811742EA8312A7FB0201B6EB2B
:100560000B0164EB00042B0D43EA0C335E1844EBE3
:100570001C50DA465146E7FB0201C5F313044FEA6B
:100580000B3343EA14534FEA0432019C43EA060357
:10059000A4F10C040294009CCDE900B400F0E4F84E
:1005A00003B0BDE8F08F00200146F9E72DE9F04DDA
:1005B00081EA030404F0004B21F0004514464FF09B
:1005C000000A23F0004150EA050220D054EA01025B
:1005D0001DD0C5F30A570246C5F31303C1F3130038
:1005E000C1F30A5640F4801543F48013A7EB0608C4
:1005F000101BD64608F2FD3873EB050002D308F154
:10060000010801E092185B41B8F1000F03DA002005
:100610000146BDE8F08D00204FF480110646844667
:100620000EE0171B73EB050705D3121B63EB0503E5
:1006300006434CEA010C49084FEA300092185B412E
:1006400050EA0107EDD152EA030012D082EA040019
:1006500083EA0501084305D0101BAB4106D20122F5
:10066000002306E000224FF0004302E06FF0010299
:1006700053101AEB06004CEB085110EB0A0041EB4B
:100680000B01BDE8F04D00F060B8000030B5041E6D
:1006900071F1000404DB4FF00044404264EB0101BF
:1006A000141E73F1000405DB1C464FF00043524258
:1006B00063EB0403994208BF904230BD30B50B464E
:1006C000014600202022012409E021FA02F59D4282
:1006D00005D303FA02F5491B04FA02F52844151E56
:1006E000A2F10102F1DC30BD202A04DB203A00FA3D
:1006F00002F1002070479140C2F1200320FA03F379
:10070000194390407047202A04DB203A21FA02F076
:100710000021704721FA02F3D040C2F1200291403B
:10072000084319467047202A06DBCB17203A41FAC6
:1007300002F043EAE07306E041FA02F3D040C2F16E
:100740002002914008431946704710B5141E73F1FA
:10075000000408DA401C41F1000192185B411A4381
:1007600001D120F0010010BD2DE9F04D92469B46CD
:1007700011B1B1FA81F202E0B0FA80F22032904673
:10078000FFF7B2FF04460F4640EA0A0041EA0B01B8
:1007900053465A46084313D0114653EA010019D074
:1007A000C8F140025046FFF7AEFF05460E465046E0
:1007B00059464246FFF798FF084305D0012004E060
:1007C00020463946BDE8F08D0020054346EAE07634
:1007D0002C4337430A986305E40AA0EB0800002283
:1007E000FD0A44EA47540A3002D500200146E9E7F1
:1007F000010510196941DDE9084500196941BDE8A5
:10080000F04DA2E7C1F30A52C1F3130140F2FF33E6
:1008100041F480119A4202DA00200146704740F20A
:1008200033439A42A2F2334202DC5242FFF76BBFDB
:10083000FFF75ABF064C074D06E0E06840F00103A1
:1008400094E8070098471034AC42F6D3FFF7C8FC91
:10085000CC870008EC87000800BFFEE7704772B63F
:1008600000BFFEE70146002091F82520022A03D0B0
:100870000422CA63012027E00A68126822F00E02EF
:100880000B681A608A6C126822F480728B6C1A6092
:100890000A68126822F001020B681A6091F844207D
:1008A00002F01F0301229A400B6C5A60D1E9133207
:1008B0005A604A6D42B14A6D126822F480724B6DE3
:1008C0001A60D1E916325A60012281F8252000BF52
:1008D000002281F8242000BF704770B5044600252F
:1008E00094F8250002280BD00420E063012084F84E
:1008F000250000BF002084F8240000BF012534E05B
:100900002068006820F00E002168086020680068F8
:1009100020F0010021680860A06C006820F480705D
:10092000A16C086094F8440000F01F010120884089
:10093000216C4860D4E913104860606D40B1606D6F
:10094000006820F48070616D0860D4E9161048607A
:10095000012084F8250000BF002084F8240000BF97
:10096000A06B10B12046A16B8847284670BD0000DF
:1009700078B503460022D0E0012696400D6805EACE
:100980000604002C72D04D68012D08D04D68022D50
:1009900005D04D68112D02D04D68122D13D19868E5
:1009A00056000325B540A8435600CD68B5402843FE
:1009B0009860586801259540A8430D79C5F3001546
:1009C000954028435860D86856000325B540A84391
:1009D00056008D68B5402843D8604D68022D02D07E
:1009E0004D68122D13D1D60803F1200555F82600C5
:1009F0005507EE0E0F25B540A8435607F60E0D69B4
:100A0000B5402843D60803F1200545F826001868AC
:100A100056000325B540A8430D7905F0030556009F
:100A2000B540284318604D6805F08055B5F1805FEA
:100A300072D100BF3C4D2D6E45F001053A4E356632
:100A400035462D6E05F00105009500BF00BF4FEA49
:100A5000B635960855F8260095072E0F0F25B54098
:100A6000A843B3F1904F02D100251AE054E02F4D76
:100A7000AB4201D1012514E02D4DAB4201D102253D
:100A80000FE02C4DAB4201D103250AE02A4DAB42C9
:100A900001D1042505E0294DAB4201D1052500E037
:100AA00006259607360FB5402843254D960845F88C
:100AB0002600244D2868A0434D6805F48035B5F51F
:100AC000803F00D120431F4D28602D1D2868A04382
:100AD0004D6805F40035B5F5003F00D12043194DB0
:100AE0002D1D28602D1D2868A0434D6805F4801534
:100AF000B5F5801F00D12043124D083528602D1D0B
:100B00002868A0434D6805F40015B5F5001F00D115
:100B100020430C4D0C352860521C0D68D540002D2B
:100B20007FF42AAF78BD00000010024000040048A6
:100B300000080048000C004800100048001400485D
:100B40000800014000040140024613690B400BB14C
:100B5000012000E00020704710B5426921EA02033D
:100B600002EA010443EA0443836110BD0AB18161D2
:100B700000E0816270470000014800687047000093
:100B800020000020704770477047704770477047DB
:100B9000704770477047024600BF92F8DC0001289A
:100BA00001D102207047012082F8DC0000BF022042
:100BB00082F8DD00481C80B91068D0F8CC0320F022
:100BC00002031068C0F8CC331068D0F8CC0340F0B2
:100BD00001031068C0F8CC3318E01068D0F8CC03DB
:100BE00040F002031068C0F8CC331068D0F8CC0392
:100BF00020F00C0008431368C3F8CC031068D0F849
:100C0000CC0340F001031068C0F8CC33012082F817
:100C1000DD000020C6E7000030B503460C4693F81F
:100C2000DD00022800D130BD00BF93F8DC000128B0
:100C300001D10220F7E7012083F8DC0000BF022089
:100C400083F8DD00108800F4E0519088C0F30800BC
:100C50000143108900F400700143108A00F48040C1
:100C60000143908900F400400143908A134D05EA46
:100C700000400143906900F000700143106A00F0E9
:100C800080400143D06900F0004001431868803083
:100C900000EBC410806B0A4D284008431D68803566
:100CA00005EBC415A863012083F8DD0000BF002018
:100CB00083F8DC0000BF00BFB5E700000000FF01C3
:100CC0000020003C7047704770477047704770477E
:100CD000704770B505460C46FF2C03D1284602F03C
:100CE0006DF809E0062C03D1284602F02EF903E046
:100CF0002146284602F039FA70BD0000F8B50446D6
:100D00000CB90120F8BD0220E03404F8030C0020E7
:100D100020606060A060E06020616061A061E03CF4
:100D2000207A00F0010008B33549206888420DD1CF
:100D300000BF3448006E40F08060324908660846C3
:100D4000006E00F08060009000BF00BF2068066861
:100D500026F44046208A00F44040064326F44056DC
:100D6000A08A00F44050064320680660204600F048
:100D70004BF8207A00F0020048B12068066826F49B
:100D80004076A08900F44070064320680660012088
:100D900084F8DD0000BF002084F8DC0000BF0025DF
:100DA00029E00021C5EBC50204F1180040F822102B
:100DB000C5EBC50200EB82004160C5EBC50204F142
:100DC000180000EB82008160C5EBC50204F1180039
:100DD00000EB8200C160C5EBC50204F1180000EB16
:100DE00082000161C5EBC50204F1180000EB82002E
:100DF0008161681CC5B2062DD3D9002082E70000AE
:100E0000006801400010024038B504460D492068D2
:100E1000884215D100BF0C48006E40F080600A493E
:100E200008660846006E00F08060009000BF00BFBA
:100E300000220521472000F0E9FC472000F0D2FC09
:100E400038BD0000006801400010024010B586B0B7
:100E50000446142101A8FFF785FA11492068884249
:100E60001CD100BF0F48C06C40F002000D49C8649F
:100E70000846C06C00F00200009000BF00BF4FF4B5
:100E80004040019002200290002003900320049033
:100E90000D20059001A90448FFF76AFD06B010BDBA
:100EA000006801400010024000040048704770478D
:100EB0007047704770B504460D46FFF75DFE064665
:100EC0000CE0681C50B1FFF757FE801BA84200D809
:100ED00025B9072084F8DD00032070BD2068D0F814
:100EE0008803C0F300400028EBD0012084F8DD0027
:100EF00000BF002084F8DC0000BF00BFEDE77047B2
:100F000070477047704770B504460D46164694F812
:100F1000DD00022800D170BD022084F8DD00062D1E
:100F200004D13146204601F0ADFF04E032462946A7
:100F3000204602F011FA012084F8DD000020EAE7E3
:100F400030B5044694F8DD00022800D130BD00BF62
:100F500094F8DC00012801D10220F7E7012084F891
:100F6000DC0000BF022084F8DD00062928D1012A18
:100F700006D0022A08D0042A0AD0082A10D10BE091
:100F800018682568E86114E018682568686210E050
:100F900018682568A8620CE018682568E86208E00F
:100FA000072084F8DD0000BF002084F8DC0000BFCB
:100FB00000BF00BF94F8DD0007287DD10120C5E700
:100FC000012A06D0022A0BD0042A4CD0082A74D158
:100FD00050E01D682068803000EBC110C5619AE0C8
:100FE0001D682068803000EBC1104562586868B306
:100FF0002068803000EBC110006820F44055206864
:10100000803000EBC11005602068803000EBC1101B
:1010100000685D6828432568803505EBC1152860A8
:101020005868B0F5005F06D19D682068803000EBFD
:10103000C110C56116E05868B0F5405F12D19D68D7
:101040002068803000EBC11085620BE020688030A2
:1010500000EBC110006820F440502568803505EB96
:10106000C115286057E01D682068803000EBC11072
:10107000856250E01D682068803000EBC110C562B9
:10108000586888B32068803000EBC110006820F4F5
:1010900040452068803000EBC1100560206880303A
:1010A00000EBC11000685D6840EA8505206880306B
:1010B00000EBC110056001E034E023E05868B0F5B2
:1010C000005F06D19D682068803000EBC110C561CB
:1010D00017E05868B0F5405F13D19D6820688030F4
:1010E00000EBC11085620CE0FFE72068803000EB68
:1010F000C110006820F440402568803505EBC1151B
:10110000286008E0072084F8DD0000BF002084F894
:10111000DC0000BF00BF00BF94F8DD00072801D14C
:10112000012013E7012084F8DD0000BF002084F8CF
:10113000DC0000BF00BF09E7024600BF92F8DC00F8
:10114000012801D102207047012082F8DC0000BF95
:10115000022082F8DD0010680068084313681860F8
:10116000012082F8DD0000BF002082F8DC0000BF13
:1011700000BFE8E72DE9F04104460D4616461F463C
:1011800094F8DD00022801D1BDE8F08100BF94F899
:10119000DC00012801D10220F6E7012084F8DC0000
:1011A00000BF022084F8DD003B4632462946204637
:1011B00001F058FF012084F8DD0000BF002084F812
:1011C000DC0000BF00BFDFE7024600BF92F8DC0092
:1011D000012801D102207047012082F8DC0000BF05
:1011E000022082F8DD001068D0F8940308431368E9
:1011F000C3F89403012082F8DD0000BF002082F8CC
:10120000DC0000BF00BFE6E770B504460D46164699
:1012100094F8DD00022800D170BD00BF94F8DC0016
:10122000012801D10220F7E7012084F8DC0000BF8B
:10123000022084F8DD00062D04D13146204601F05D
:1012400035FE04E032462946204602F0A5F8C5EBFB
:10125000C50204F1180000EB820031688160C5EB23
:10126000C50204F1180000EB82007168C160C5EB93
:10127000C50204F1180000EB8200B1680161C5EB02
:10128000C50204F1180000EB8200F1684161C5EB72
:10129000C50204F1180000EB820031698161294622
:1012A000204601F041FD012084F8DD0000BF002050
:1012B00084F8DC0000BF00BFAEE770B504460D4601
:1012C000164694F8DD00022800D170BD00BF94F8E6
:1012D000DC00012801D10220F7E7012084F8DC00BE
:1012E00000BF022084F8DD0032462946204602F085
:1012F00083F92946204601F017FD012084F8DD001E
:1013000000BF002084F8DC0000BF00BFDDE702461C
:1013100092F8410020282DD100BF92F8400001280A
:1013200001D102207047012082F8400000BF242034
:1013300082F841001068006820F00100136818600E
:101340001068006820F48050136818601068006806
:101350000843136818601068006840F001001368C3
:101360001860202082F8410000BF002082F8400071
:1013700000BFD7E70220D5E710B502460B4692F82A
:10138000410020282AD100BF92F84000012801D155
:10139000022010BD012082F8400000BF242082F806
:1013A00041001068006820F0010014682060106897
:1013B000016821F4706141EA03211068016010683E
:1013C000006840F0010014682060202082F841008D
:1013D00000BF002082F8400000BFDAE70220D8E713
:1013E00008B500BF0949096E41F00101074A1166BD
:1013F0001146096E01F00101009100BF00BF0449D0
:1014000049680143024A516008BD000000100240D3
:101410000000014010B504460CB9012010BD94F83D
:10142000410028B9002084F84000204600F004F96B
:10143000242084F841002068006820F00100216821
:101440000860606820F0706021680861206880682A
:1014500020F4004021688860E068012805D1A06878
:1014600040F400402168886004E0A06840F4044033
:1014700021688860E068022802D180022168486003
:101480002068406813490843216848602068C068A4
:1014900020F400402168C860D4E904010843A16930
:1014A00040EA01202168C860D4E9070108432168A7
:1014B00008602068006840F0010021680860002092
:1014C0006064202084F841000020206384F84200FA
:1014D00000BFA3E7008000022DE9F84304468946D7
:1014E00016461F46DDF8208094F84100202871D16F
:1014F00000BF94F84000012802D10220BDE8F88323
:10150000012084F8400000BFFFF736FB0546192391
:101510000122D1032046009502F018F908B10120FC
:10152000ECE7212084F84100102084F842000020DC
:101530006064666267856063608DFF280BD9FF2059
:1015400020853B48009094F82820C3024946204655
:1015500002F0E2F80AE0608D20853548009094F8AA
:10156000282003034946204602F0D6F83FE02A46E9
:101570004146204602F044F908B10120BEE7606A06
:10158000007821688862606A401C6062608D401E3D
:101590006085208D401E2085608D40B3208D30BB3E
:1015A0004346002280212046009502F0CFF808B182
:1015B0000120A3E7608DFF280DD9FF2020850020A2
:1015C000009094F828204FF080734946204602F09E
:1015D000A3F80CE02AE0608D20850020009094F8AC
:1015E00028204FF000734946204602F095F8608DA0
:1015F0000028BCD12A464146204602F0D6F808B160
:1016000001207BE720202168C861206840680949E3
:10161000084021684860202084F84100002084F8B8
:10162000420000BF84F8400000BF67E7022065E782
:101630000020008000E800FE10B59CB00446142194
:1016400017A8FEF78FFE542102A8FEF78BFE2B4948
:101650002068884250D18015029000200B9002A88B
:1016600000F0BCF908B1FFF7FAF800BF2448C06CDD
:1016700040F004002249C8640846C06C00F0040031
:10168000019000BF00BF00BF0846C06C40F00100E1
:10169000C8640846C06C00F00100019000BF00BFA4
:1016A00048151790122018900120199003201A90C5
:1016B00008201B9017A91348FFF75AF94FF48070C0
:1016C0001790122018900120199003201A900220E0
:1016D0001B9017A94FF09040FFF74AF900BF084848
:1016E000806D40F08040064988650846806D00F0B6
:1016F0008040019000BF00BF1CB010BD00780040CA
:1017000000100240000800480348006803490968C7
:10171000084401490860704720000020280000208C
:1017200010B50024032000F0AFF80F2000F008F8F7
:1017300008B1012401E000F02FF8204610BD0000A0
:1017400070B50446002511480068D8B10F480068FC
:101750004FF47A71B1FBF0F00D490968B1FBF0F676
:10176000304600F083FF58B9102C07D200222146E2
:10177000501E00F04BF80748046004E0012502E029
:10178000012500E00125284670BD0000280000204A
:101790002C0000202400002008B500BF1048006E77
:1017A00040F001000E4908660846006E00F0010096
:1017B000009000BF00BF00BF0846806D40F0805021
:1017C00088650846806D00F08050009000BF00BF23
:1017D00000220F21901E00F019F800F0F5F808BD66
:1017E000001002400146084600280DDB00BF00BF84
:1017F00000F01F0301229A4043099B0003F1E023FC
:10180000C3F8002100BF00BF00BF70472DE9F05FA3
:1018100080460D46164603F051FB074639462A46D8
:10182000334601F00700C0F1070ABAF1040F02D9EC
:101830004FF0040A01E0C0F1070AD14600F1040AA2
:10184000BAF1070F02D24FF0000A01E0A0F1030A3B
:10185000D4464FF0010A0AFA09FAAAF1010A0AEA83
:10186000020A0AFA0CFA4FF0010B0BFA0CFBABF16F
:10187000010B0BEA030B4AEA0B042146404603F036
:1018800025FBBDE8F09F000000BF00F00702064BFB
:1018900019684FF6FF031940044B0B4343EA02213A
:1018A000014B196000BF70470CED00E00000FA0525
:1018B00002468ABB4148006800F4C060B0F5806F02
:1018C0002BD13E488030006820F480703B4BC3F839
:1018D00080001846006820F4C06040F40070186072
:1018E0003748006832235843364BB0FBF3F0411CB5
:1018F00000E0491E3148406900F48060B0F5806F17
:1019000001D10029F5D12D48406900F48060B0F57F
:10191000806F51D10320704708E02848803000686C
:1019200020F48070254BC3F8800045E0B2F5007FBD
:101930003AD12248006800F4C060B0F5806F2AD127
:101940001E488030006840F480701C4BC3F8800053
:101950001846006820F4C06040F400701860184811
:10196000006832235843174BB0FBF3F0411C00E0F2
:10197000491E1248406900F48060B0F5806F01D1C3
:101980000029F5D10D48406900F48060B0F5806F02
:1019900012D10320BFE709488030006840F480700E
:1019A000064BC3F8800007E00448006820F4C060DC
:1019B00040F48060014B18600020ACE700700040EC
:1019C0002C00002040420F000348806840F4804013
:1019D0000149886070470000007000402DE9F8431D
:1019E00004460027B846206800F40020B0F5002F18
:1019F00073D1B946FD48806D00F0805078B900BFC2
:101A0000FA48806D40F08050F84988650846806D3E
:101A100000F08050009000BF00BF4FF00109F44873
:101A2000006840F48070F2490860FFF7A5F80646A8
:101A300006E0FFF7A1F8801B022801D9032705E083
:101A4000EB48006800F480700028F2D000BF002F3F
:101A500046D1E6489030006800F44075CDB1206D65
:101A6000A84216D0E1489030006820F44075DF4865
:101A7000D0F8900040F48030DC49C1F8900008466E
:101A8000D0F8900020F48030C1F890000846C0F8EB
:101A9000905005F00100A0B1FFF76EF8064608E08F
:101AA000FFF76AF8801B41F28831884201D9032789
:101AB00006E0CE489030006800F002000028EFD029
:101AC00000BF5FB9C9489030006820F44070216DB4
:101AD0000843C649C1F8900003E00CE0B84600E0B6
:101AE000B846B9F1010F05D1C048806D20F0805093
:101AF000BE49886500BF207800F0010048B1BB48AE
:101B00008830006820F0030061680843B749C1F8D5
:101B10008800207800F00200022809D1B3488830FC
:101B2000006820F00C00A1680843B049C1F88800A3
:101B3000207800F00400042809D1AC4888300068FF
:101B400020F03000E1680843A849C1F888002078F7
:101B500000F00800082809D1A4488830006820F067
:101B6000C00021690843A149C1F88800207800F02D
:101B70001000102809D19D488830006820F440707A
:101B8000616908439949C1F88800207800F0200075
:101B9000202809D195488830006820F44060A16968
:101BA00008439249C1F88800207800F0400040289E
:101BB00009D18E488830006820F44050E16908431C
:101BC0008A49C1F88800207800F08000802809D177
:101BD00086488830006820F44040216A08438349E1
:101BE000C1F88800208800F48070B0F5807F09D1AA
:101BF0007E488830006820F44030616A08437B49A1
:101C0000C1F88800206800F40030B0F5003F09D129
:101C100076489C30006820F00300A16A08437349AD
:101C2000C1F89C00208800F40070B0F5007F09D155
:101C30006E488830006820F44020E16A08436B4910
:101C4000C1F88800208800F48060B0F5806F13D15F
:101C500066488830006820F44010216B08436349CF
:101C600088310860206BB0F5801F05D15F48C068DF
:101C700040F480105D49C860208800F40060B0F531
:101C8000006F13D159488830006820F44000616B20
:101C90000843564988310860606BB0F5800F05D164
:101CA0005248C06840F480105049C860208800F451
:101CB0008050B0F5805F13D14C488830006820F028
:101CC0004070A16B0843494988310860A06BB0F1AE
:101CD000807F05D14548C06840F480104349C86002
:101CE000208800F40050B0F5005F13D13F488830E1
:101CF000006820F04060E16B08433C49883108608F
:101D0000E06BB0F1006F05D13848C06840F4801036
:101D10003649C860208800F48040B0F5804F13D168
:101D200032488830006820F04060216C08432F4919
:101D300088310860206CB0F1006F05D12B48C06875
:101D400040F480102949C860208800F40040B0F5B4
:101D5000004F13D125488830006820F04050616C56
:101D60000843224988310860606CB0F1805F05D17A
:101D70001E48C06840F480301C49C860206800F4E8
:101D80008030B0F5803F13D118488830006820F0CB
:101D90004040A16C0843154988310860A06CB0F13F
:101DA000804F05D11148C06840F480300F49C860A9
:101DB000206800F48020B0F5802F13D10B489C30B0
:101DC000006820F44010E16C084308499C31086029
:101DD000E06CB0F5001F05D10448C06840F48010E5
:101DE0000249C8604046BDE8F88300000010024088
:101DF000007000402DE9F04104460D464FF0000808
:101E000014B90120BDE8F0817D48006800F00F00A2
:101E1000A8420ED27A48006820F00F002843784983
:101E200008600846006800F00F00A84201D00120B9
:101E3000E8E7207800F00100002864D060680328FB
:101E400023D17048006800F0007008B90120D9E77C
:101E500002F022F906466C48864237D96948806804
:101E600000F0F00030B1207800F0020002282DD1FF
:101E7000A06858BB6348806820F0F00040F0800004
:101E8000604988604FF0800820E06068022806D131
:101E90005C48006800F4003040B90120B2E75948BE
:101EA000006800F4806008B90120ABE700F0DEF8BC
:101EB00006465548864209D95248806820F0F0000D
:101EC00040F080004F4988604FF080084D4880689E
:101ED00020F00300616808434A498860FEF74CFE21
:101EE000074608E0FEF748FEC01B41F288318842F1
:101EF00001D9032086E74348806800F00C00616840
:101F0000B0EB810FEED1207800F00200022820D142
:101F1000207800F00400042805D13A48806840F495
:101F2000E06038498860207800F00800082807D170
:101F30003448806820F4605040F4E06031498860A3
:101F40003048806820F0F000A16808432D4988607F
:101F500008E0B8F1800F05D12A48806820F0F00031
:101F6000284988602648006800F00F00A84219D967
:101F70002348006820F00F00284321490860FEF73D
:101F8000FBFD074608E0FEF7F7FDC01B41F2883174
:101F9000884201D9032035E71948006800F00F0096
:101FA000A842F0D1207800F00400042807D1154899
:101FB000806820F4E060E168084312498860207876
:101FC00000F00800082808D10E48806820F460500E
:101FD000216940EAC1000B49886000F047F80949CF
:101FE0008968C1F30311094A515C01F01F01C8401F
:101FF0000749086007480068FFF7A2FB02E70000F6
:10200000002002400010024000B4C404247B0008F9
:102010002C000020240000200148006870470000C8
:102020002C00002000B5FFF7F7FF05498968C1F3D0
:102030000221044A515C01F01F01C84000BD0000AC
:1020400000100240347B000800B5FFF7E5FF0549AA
:102050008968C1F3C221044A515C01F01F01C840E4
:1020600000BD000000100240347B000870B5224D16
:10207000AD6805F00C05042D01D120483AE01E4D55
:10208000AD6805F00C05082D01D11D4832E01A4D50
:10209000AD6805F00C050C2D2BD1174DED6805F042
:1020A0000304154DED68C5F303156A1C022C0CD012
:1020B000032C09D1124DB5FBF2F50F4EF668C6F3AD
:1020C000062605FB06F10AE000BF0C4DB5FBF2F554
:1020D000094EF668C6F3062605FB06F100BF00BFF1
:1020E000054DED68C5F341656D1C6B00B1FBF3F068
:1020F00000E0002070BD0000001002400024F40049
:1021000040787D012DE9F843044614B90120BDE86B
:10211000F883207800F00100002865D0FC48806832
:1021200000F00C07FA48C06800F003060C2F01D13C
:10213000032E01D0082F0AD1F548006800F40030C2
:10214000002851D0606800284ED10120DFE700BF91
:102150006068B0F5803F06D1ED48006840F48030FB
:10216000EB4908601AE06068B0F5A02F0BD1E84891
:10217000006840F48020E64908600846006840F4A2
:10218000803008600AE0E248006820F48030E049CE
:1021900008600846006820F48020086000BF60687E
:1021A00088B1FEF7E9FC054606E0FEF7E5FC401BBA
:1021B000642801D90320AAE7D548006800F400305C
:1021C0000028F2D010E0FEF7D7FC054606E0FEF747
:1021D000D3FC401B642801D9032098E7CC48006851
:1021E00000F400300028F2D1207800F0020002282C
:1021F00060D1C748806800F00C07C548C06800F08F
:1022000003060C2F01D1022E01D0042F18D1C04893
:10221000006800F4806018B1E06808B9012076E732
:10222000BB48406820F0FE40217C40EA0160B8498C
:102230004860B8480068FFF783FA18B3012066E7E2
:10224000E06800B3B248006840F48070B0490860AC
:10225000FEF792FC054606E0FEF78EFC401B0228C6
:1022600001D9032053E7AA48006800F480600028E1
:10227000F2D0A748406820F0FE40217C40EA01608F
:10228000A349486016E0A248006820F48070A04985
:102290000860FEF771FC054606E0FEF76DFC401B8A
:1022A000022801D9032032E79948006800F48060D1
:1022B0000028F2D1207800F00800082836D16069A3
:1022C000D0B193489430006840F001009049C1F8C3
:1022D0009400FEF751FC054606E0FEF74DFC401B5E
:1022E000022801D9032012E789489430006800F0E1
:1022F00002000028F1D019E085489430006820F0F1
:1023000001008349C1F89400FEF736FC054606E05B
:10231000FEF732FC401B022801D90320F7E67C4877
:102320009430006800F002000028F1D1207800F01D
:102330000400042872D14FF000087548806D012117
:1023400021EA107078B100BF7148806D40F0805074
:102350006F4988650846806D00F08050009000BF8E
:1023600000BF4FF001086C48006800F48070B0B9FD
:102370006948006840F4807067490860FEF7FCFB1C
:10238000054606E0FEF7F8FB401B022801D90320B2
:10239000BDE66148006800F480700028F2D000BFFC
:1023A000A068012808D15A489030006840F0010028
:1023B0005749C1F8900021E0A06805280FD1544882
:1023C0009030006840F004005149C1F89000084680
:1023D000D0F8900040F00100C1F890000EE04C48A9
:1023E0009030006820F001004949C1F8900008468B
:1023F000D0F8900020F00400C1F8900000BFA06861
:10240000A8B1FEF7B9FB054609E0FEF7B5FB401B96
:1024100041F28831884202D9032078E625E03C4821
:102420009030006800F002000028EED013E0FEF7C4
:10243000A3FB054608E0FEF79FFB401B41F28831F5
:10244000884201D9032062E631489030006800F0EC
:1024500002000028EFD1B8F1010F05D12C48806DA2
:1024600020F080502A49886500BF207800F02000C5
:10247000202836D1A069D0B125489830006840F0B6
:1024800001002349C1F89800FEF776FB054606E0F7
:10249000FEF772FB401B022801D9032037E61C48D7
:1024A0009830006800F002000028F1D019E01848C8
:1024B0009830006820F001001549C1F89800FEF737
:1024C0005BFB054606E0FEF757FB401B022801D9DF
:1024D00003201CE60E489830006800F00200002837
:1024E000F1D1E069002860D00948806800F00C0054
:1024F0000C287FD0E069022858D10548006820F0F8
:10250000807003490860FEF737FB05460DE00000C8
:10251000001002402400002000700040FEF72CFB59
:10252000401B022801D90320F1E54D48006800F066
:1025300000700028F2D1D4E90810401E41EA0011D1
:10254000A06A41EA0021208E0122C2EB500041EA3C
:1025500040513420005DC2EB500041EA40612C2024
:10256000005D41EAC0603E49C9683E4A11400843E7
:102570003B49C8600846006840F080700860084623
:10258000C06840F08070C860FEF7F6FA054606E0C5
:10259000FEF7F2FA401B022801D90320B7E53048C4
:1025A000006800F000700028F2D056E02C48006867
:1025B00020F080702A4908600846C06820F00300B7
:1025C000C8600846C068284908402549C860FEF729
:1025D000D3FA054607E00DE0FEF7CEFA401B0228CD
:1025E00001D9032093E51E48006800F00070002820
:1025F000F2D132E0E069012800D188E51848C668C8
:1026000006F00301206A814225D106F0F001606ADC
:10261000401EB1EB001F1ED106F4FE41A06AB1EBD3
:10262000002F18D106F078412C20005DB1EBC06F6F
:1026300011D106F4C001208E0122C2EB5000B1EB93
:10264000405F08D106F0C0613420005DC2EB50004D
:10265000B1EB406F01D0012059E5002057E50000A3
:10266000001002400C809F01FFFFEEFE70B5044693
:102670002546681EB0F1807F01D301200FE0681E5F
:102680004FF0E02148610F214FF0FF3002F01EFCB7
:1026900000204FF0E021886107200861002070BD14
:1026A000014600BF91F88000012801D10220704747
:1026B000012081F8800000BF2420C1F88400086850
:1026C00002680868006820F001000B68186022F0BA
:1026D000005200204866086802602020C1F884008B
:1026E00000BF002081F8800000BF00BFDFE7704717
:1026F000704770B504460D4600BF94F8800001286D
:1027000001D1022070BD012084F8800000BF242088
:10271000C4F88400206806682068006820F0010082
:10272000216808602068806820F060602843216884
:102730008860204601F0C6FD206806602020C4F8AD
:10274000840000BF002084F8800000BF00BFD9E7EC
:1027500070B504460D4600BF94F88000012801D1F1
:10276000022070BD012084F8800000BF2420C4F83E
:102770008400206806682068006820F00100216855
:1027800008602068806820F06040284321688860E5
:10279000204601F097FD206806602020C4F88400E0
:1027A00000BF002084F8800000BF00BFD9E7704759
:1027B000704770472DE9F04704462068C5692068D6
:1027C00006682068876840F60F0005EA0009B9F13D
:1027D000000F0FD105F0200060B106F0200010B905
:1027E00007F0805030B1206F10B12046216F88472C
:1027F000BDE8F087B9F1000F7ED0AD48384018B978
:10280000AC4830400028F7D005F0010058B106F47C
:10281000807040B1012021680862D4F88C0040F03B
:102820000100C4F88C0005F0020058B107F0010067
:1028300040B1022021680862D4F88C0040F0040006
:10284000C4F88C0005F0040058B107F0010040B155
:10285000042021680862D4F88C0040F00200C4F81B
:102860008C0005F0080070B106F0200010B9904807
:10287000384040B1082021680862D4F88C0040F04C
:102880000800C4F88C0005F4006060B106F08060B8
:1028900048B14FF4006021680862D4F88C0040F021
:1028A0002000C4F88C00D4F88C00002844D005F037
:1028B000200050B106F0200010B907F0805020B180
:1028C000206F10B12046216F8847D4F88CA0206873
:1028D000806800F04000402802D00AF0280028B3A9
:1028E000204601F0DFFD2068806800F040004028AD
:1028F00018D12068806800E01FE020F040002168C7
:102900008860E06F50B16C48E16F8863E06FFDF75D
:10291000E4FF88B1E06F816B88470DE02046FFF748
:1029200048FF09E02046FFF744FF05E02046FFF797
:1029300040FF0020C4F88C005AE7E06E012879D1EE
:1029400005F01000002875D006F01000002871D0A6
:102950001020216808622068806800F0400040284C
:102960003DD1E06F006840681FFA80F8B8F1000FB1
:1029700034D0B4F85C00404530DDA4F85E80E06FF0
:102980000068006800F02000F8B92068006820F4B2
:102990008070216808602068806820F0010021684C
:1029A00088602068806820F04000216888602020CE
:1029B000C4F888000020E0662068006820F010005D
:1029C00021680860E06FFDF74DFFB4F85C00B4F8D3
:1029D0005E20801A81B22046FFF789FE08E734F8AE
:1029E0005C0F6188401A1FFA80F860885C3CF8B17F
:1029F000B8F1000F1CD02068006820F490702168A6
:102A00000860206880682A49C943084021688860B6
:102A10002020C4F888000020E06620672068006855
:102A200020F010002168086041462046FFF75FFE55
:102A3000DEE6FFE705F4801050B107F4800038B1FE
:102A40004FF48010216808622046FFF7B1FECFE600
:102A500005F0800058B106F0800010B907F40000BE
:102A600028B1606F10B12046616F8847C0E605F05D
:102A7000400030B106F0400018B1204601F030FDB2
:102A8000B6E605F4000030B106F0804018B12046EB
:102A9000FFF78DFEACE605F0807030B106F0004027
:102AA00018B12046FFF724FEA2E600BFA0E6000012
:102AB00001000010200100048B44000810B50446FA
:102AC0000CB9012010BDA06900B100E000BFD4F82E
:102AD000840028B9002084F88000204600F02AF8FD
:102AE0002420C4F884002068006820F001002168D8
:102AF0000860204601F0FAFE012800D1E2E7A06A52
:102B000010B1204601F00AFC2068406820F4904093
:102B1000216848602068806820F02A002168886069
:102B20002068006840F0010021680860204601F03C
:102B300071FCC7E710B59CB00446142117A8FDF737
:102B400011FC542102A8FDF70DFC204920688842A1
:102B500039D1022002900020049002A8FEF73EFF27
:102B600008B1FDF77CFE00BF1948806D40F40030CD
:102B7000174988650846806D00F40030019000BF59
:102B800000BF00BF0846C06C40F00200C8640846A1
:102B9000C06C00F00200019000BF00BF1820179029
:102BA00002201890002019901A9007201B9017A956
:102BB0000848FDF7DDFE002205212620FEF726FE4F
:102BC0002620FEF70FFE1CB010BD000000440040A0
:102BD000001002400004004870B504460D46164639
:102BE000D4F88800202825D105B10EB9012070BD88
:102BF00000BF94F88000012801D10220F7E70120EE
:102C000084F8800000BF0020E0660B4920688842FD
:102C10000AD02068406800F4000028B120680068ED
:102C200040F080602168086032462946204602F064
:102C300043F8DCE70220DAE70080004070472DE926
:102C4000F84F04460E4617469946D4F884002028CB
:102C50005ED106B117B90120BDE8F88F00BF94F826
:102C60008000012801D10220F6E7012084F88000CD
:102C700000BF00205434A06321202063FDF77CFFB7
:102C8000824627806780543CA068B0F5805F04D1FD
:102C9000206910B90025B04602E035464FF0000823
:102CA00000BF002084F8800000BF1DE053460022D2
:102CB00080212046CDF8009002F086F808B103206C
:102CC000CAE745B9B8F80000C0F308002168886277
:102CD00008F1020803E02878216888626D1CB4F8C6
:102CE0005600401EA4F85600B4F856000028DDD166
:102CF0005346002240212046CDF8009002F064F8AF
:102D000008B10320A8E72020C4F884000020A3E72E
:102D10000220A1E77047000010B503210148FDF72C
:102D2000D8FF10BDBC000020072944D2DFE801F025
:102D30000D161F28313A04000268D2F8842342F0AD
:102D400001030268C2F8843336E00268D2F88423B3
:102D500042F002030268C2F884332DE00268D2F820
:102D6000842342F004030268C2F8843324E002683A
:102D7000D2F8842342F008030268C2F884331BE0CF
:102D80000268D2F8842342F010030268C2F8843348
:102D900012E00268D2F8842342F020030268C2F8ED
:102DA000843309E00268D2F8842342F040030268C9
:102DB000C2F8843300E000BF00BF704770B504461E
:102DC0002068D0F888532068D0F8906305F001009F
:102DD00048B106F0010030B101212068C0F88C1321
:102DE0002046FDF770FF05F0020048B106F0020032
:102DF00030B102212068C0F88C132046FDF764FF33
:102E000005F0040048B106F0040030B10421206848
:102E1000C0F88C132046FDF758FF05F0080048B1B4
:102E200006F0080030B108212068C0F88C13204655
:102E3000FDF74CFF05F0100048B106F0100030B16E
:102E400010212068C0F88C132046FDF740FF05F0E4
:102E5000400048B106F0400030B140212068C0F881
:102E60008C132046FDF734FF05F0200048B106F032
:102E7000200030B120212068C0F88C132046FEF7D6
:102E800041F870BD10B503681A6822F007028B681C
:102E90001A4322F01802CB681A4303681A600B68C1
:102EA000046863614B680468A36110BD10B50246F5
:102EB000146820681468D4F8A03320F020004C690E
:102EC000204320F0C0004C69202C02D08C69022CD9
:102ED00004D120F0C00040F0200013E08C69032CE6
:102EE00004D140F0400020F080000BE08C69042CFD
:102EF00004D140F0800020F0400003E020F02000EA
:102F000020F0C00020F40060CC69204320F48060F1
:102F10000C6A204320F0C0604C6A204320F000601F
:102F20008C6A204320F04040CC6A40EA840020F0C4
:102F300000504C6B204323F480330C6B2343146804
:102F400020601468C4F8A03310BD2DE9F041044698
:102F50002068D0F888732068D0F89083206845688E
:102F60002068C66807F4803090B108F4803078B1EA
:102F70004FF480312068C0F88C13012084F8DD0004
:102F800000BF002084F8DC0000BF2046FDF702FEF1
:102F900007F4003050B108F4003038B14FF400317C
:102FA0002068C0F88C132046FDF7ECFD05F0010009
:102FB00048B106F0010030B1012021688860062187
:102FC0002046FDF7E2FD05F0020048B106F00200E0
:102FD00030B102202168886006212046FDF7D6FD29
:102FE00005F0040048B106F0040030B10420216867
:102FF000886006212046FDF7CAFD05F0080048B1AB
:1030000006F0080030B108202168886006212046BB
:10301000FDF7BEFD05F0100048B106F0100030B11C
:1030200010202168886006212046FDF769FF05F021
:10303000200040B106F0200028B1202021688860DF
:103040002046FDF75EFF05F0400048B106F0400065
:1030500030B140202168886006212046FDF74FFFEF
:10306000BDE8F081F0B5154600240768803707EB0E
:10307000C1177A6E0768803707EBC117BE6B402D0A
:1030800023D00EDC082D34D006DC012D1AD0022D01
:103090002ED0042D43D116E0102D15D0202D3ED179
:1030A00028E0B5F5007F27D005DC802D23D0B5F5CD
:1030B000807F34D10AE0B5F5806F08D0B5F5006F98
:1030C0002DD11AE000BF00BF00BF00BF00BFD3F882
:1030D00004C00768803707EBC117C7F83CC0D3F8B6
:1030E00008C00768803707EBC117C7F840C017E072
:1030F00000BF00BF00BF00BF00BFD3F804C0076817
:10310000803707EBC117C7F844C0D3F808C0076879
:10311000803707EBC117C7F848C0102400E000BF94
:1031200000BFFE27A740BA431F68A7403A43DF68A5
:10313000A7403A431F69A7403A435F69A7403A4313
:103140009F69A7403A431F69082F08D106F400770A
:103150002FB906F0007717B9DF69A7403A4307682F
:10316000803707EBC1177A66F0BD2DE9F0410446C0
:103170000D462068803000EBC5104668206880301E
:1031800000EBC510C76806F0010060B107F0010050
:1031900048B101212068803000EBC51081602946CC
:1031A0002046FDF7F2FC06F0020060B107F00200D5
:1031B00048B102212068803000EBC51081602946AB
:1031C0002046FDF7E3FC06F0040060B107F00400C0
:1031D00048B104212068803000EBC5108160294689
:1031E0002046FDF7D4FC06F0080060B107F00800A7
:1031F00048B108212068803000EBC5108160294665
:103200002046FDF7C5FC06F0100060B107F0100085
:1032100048B110212068803000EBC510816029463C
:103220002046FDF76DFE06F0400060B107F040005B
:1032300048B140212068803000EBC51081602946EC
:103240002046FDF75CFE06F0800060B107F08000CC
:1032500048B180212068803000EBC510816029468C
:103260002046FDF790FC06F4807068B107F480708A
:1032700050B14FF480712068803000EBC510816040
:1032800029462046FDF780FC06F4007068B107F47B
:10329000007050B14FF400712068803000EBC51011
:1032A000816029462046FDF702FE06F4806068B181
:1032B00007F4806050B14FF480612068803000EBEB
:1032C000C510816029462046FDF7F0FD06F4006038
:1032D00068B107F4006050B14FF40061206880309D
:1032E00000EBC510816029462046FDF7E2FD06F49B
:1032F000805068B107F4805050B14FF4805120687D
:10330000803000EBC510816029462046FDF7D0FDD6
:1033100006F4005068B107F4005050B14FF400516A
:103320002068803000EBC510816029462046FDF7FB
:1033300030FC06F4804068B107F4804050B14FF48F
:1033400080412068803000EBC5108160294620460E
:10335000FDF7B8FCBDE8F08130B50468803404EBBB
:10336000C114236823F007039468234323F0180350
:10337000D46823430468803404EBC11423601568C7
:103380000468803404EBC1146561556804688034B6
:1033900004EBC114A56130BD2DE9F04103460C4694
:1033A000D3F800C00CF1800C0CEBC41CDCF800C09E
:1033B0002CF07048D3F800C00CF1800C0CEBC41C4E
:1033C000CCF80080D3F800C00CF1800C0CEBC41CCE
:1033D000DCF80000D3F800C00CF1800C0CEBC41C2E
:1033E000DCF86860D3F800C00CF1800C0CEBC41C56
:1033F000DCF86450D3F800C0DCF8A01320F0200003
:10340000D2F814C04CEA0000D2F814C0BCF1200F6E
:1034100004D0D2F818C0BCF1020F04D120F4C0705F
:1034200040F0200017E0D2F818C0BCF1030F04D11F
:1034300040F0800020F480700DE0D2F818C0BCF19C
:10344000040F04D140F4807020F0800003E020F0ED
:10345000200020F4C07020F40060D2F81CC04CEAB8
:10346000000020F48060D2F820C04CEA000020F078
:10347000C060D2F824C04CEA000020F00060D2F80E
:1034800028C04CEA000020F07040D2F82CC04CEA72
:103490000000D2F82CC0BCF1000F05D120F4007060
:1034A000D2F85CC040EA4C2020F40030D2F834C09E
:1034B000BCF1005F01D140F4003020F04000D2F8B0
:1034C00038C04CEA000020F48020D2F858C04CEA02
:1034D0000000DFF820C100EA0C00D2F850C04CEA2E
:1034E000000026F03F0692F83CC00CF03F0C4CEA7E
:1034F000060626F00046D2F840C04CEA060625F43F
:103500008075D2F844C04CEA0505D2F848C0BCF535
:10351000606F04D0D2F848C0BCF5F05F04D1D2F897
:1035200038C0BCF1400F05D125F4F055D2F848C0A1
:103530004CEA050525F48045D2F84CC04CEA050557
:10354000576D062C2ED2DFE804F0030A11181F264F
:1035500021F40031D2F830C041EA4C0123E021F4DB
:103560008021D2F830C041EA8C011CE021F4002116
:10357000D2F830C041EACC0115E021F48011D2F834
:1035800030C041EA0C110EE021F40011D2F830C035
:1035900041EA4C1107E021F48001D2F830C041EA41
:1035A0008C1100E000BF00BFD3F800C00CF1800C0C
:1035B0000CEBC41CCCF80000D3F800C00CF1800C5C
:1035C0000CEBC41CCCF86860D3F800C00CF1800C84
:1035D0000CEBC41CCCF86450D3F800C00CF1800C88
:1035E0000CEBC41CCCF85470D3F800C0CCF8A0137A
:1035F000BDE8F081FFFF06FE10B503461C6880346D
:1036000004EBC114E06E20F01000146840EA0410CE
:1036100020F480105468204320F48030D468204384
:1036200020F40030946820439469012C0BD120F0E1
:1036300004001469204320F002005469204320F064
:103640000100946920431C68803404EBC114E066D7
:1036500010BD00BFFEE701688969C1F3400111B1E7
:103660000021026891620168896901F0010129B9AC
:103670000168896941F001010268916170470000A9
:1036800070B504460D46164620688069C0F30010E8
:1036900000283DD017E0681CA8B1FDF76DFA801B2B
:1036A000A84200D87DB9606C40F020006064202002
:1036B00084F84100002084F8420000BF84F84000F4
:1036C00000BF012070BD20688069C0F34010002851
:1036D000E1D010202168C86120202168C8612046FF
:1036E000FFF7B9FF206840680A4908402168486030
:1036F000606C40F004006064202084F841000020E9
:1037000084F8420000BF84F8400000BF0120D9E7E0
:103710000020D7E700E800FEF0B5059C05686D685D
:103720004FF4806606EA545666F0FC2646F4C0461E
:10373000B543C1F309064FF47F0707EA02473E434A
:103740001E432643354306687560F0BD2DE9F04100
:1037500004460E4617461D46DDF8188019E0681C21
:10376000B8B1FDF709FAA0EB0800A84200D885B966
:10377000606C40F020006064202084F8410000204C
:1037800084F8420000BF84F8400000BF0120BDE87B
:10379000F081206880693040B04201D1012000E012
:1037A0000020B842DBD00020F1E770B504460D469A
:1037B00016461DE0324629462046FFF761FF08B154
:1037C000012070BDFDF7D8F9801BA84200D87DB953
:1037D000606C40F020006064202084F841000020EC
:1037E00084F8420000BF84F8400000BF0120E8E7F1
:1037F00020688069C0F340100028DBD00020E0E79B
:1038000070B504460D4616461FE03246294620464E
:10381000FFF736FF08B1012070BD681CA8B1FDF7A5
:10382000ABF9801BA84200D87DB9606C40F0200045
:103830006064202084F84100002084F8420000BF2A
:1038400084F8400000BF0120E6E720688069C0F3EB
:1038500040000028D9D00020DEE7000010B500228B
:103860000921022003F0CEFA16490860164A022107
:10387000102002F0BDF815490860154A02211020F9
:1038800002F0B6F813490860134A0021134802F009
:10389000FCF813490860134A0021134802F0F5F8B8
:1038A00012490860124A0021124802F0EEF812494B
:1038B0000860124A0021124802F0E7F81149086036
:1038C00010BD000018000020CC7A00081000002075
:1038D000E47A0008140000203C7A00080141000846
:1038E00000000020607A0008154100080400002054
:1038F000847A00089D41000808000020A87A00088A
:10390000D54100080C00002000B587B0142102A8A2
:10391000FCF728FD00BF3A48C06C40F0040038496D
:10392000C8640846C06C00F00400019000BF00BFEE
:1039300000BF0846C06C40F02000C8640846C06C58
:1039400000F02000019000BF00BF00BF0846C06C1F
:1039500040F00100C8640846C06C00F0010001900E
:1039600000BF00BF00BF0846C06C40F00200C86442
:103970000846C06C00F00200019000BF00BF0022AA
:1039800020214FF09040FDF7F1F8012230211D4831
:10399000FDF7ECF8012220211B48FDF7E7F8202075
:1039A000029001200390002004900120059002A9BC
:1039B0004FF09040FCF7DCFFC02002900020039005
:1039C000049002A94FF09040FCF7D2FF3020029003
:1039D00001200390002004900120059002A90948CD
:1039E000FCF7C6FF202002900120039000200490E5
:1039F0000120059002A90448FCF7BAFF07B000BDFA
:103A000000100240000800480004004800B5B7B0AC
:103A1000002033903490359036901C212CA8FCF770
:103A2000A1FC602114A8FCF79DFC002011901290CD
:103A30001390242108A8FCF795FC20216846FCF788
:103A400091FC5F485F4908600020486000215D48A4
:103A50008160FDF753F908B1FCF701FF0C215948CB
:103A6000FDF799F808B1FCF7FAFE0A215548FDF771
:103A700021FA08B1FCF7F3FE47F2305033900020F2
:103A8000349035900820369033AA03214D48FDF735
:103A90003AFA08B1FCF7E3FE00202C902E902F900C
:103AA00032902CAA03214748FDF707FC08B1FCF728
:103AB000D6FE01201490002015901690179001203A
:103AC0001890002019901A901B901C901D904FF098
:103AD00000601E9000201F9020904FF00050219019
:103AE00000202290239024904FF480702590002095
:103AF0002690289029902A902B9014AA03213148CF
:103B0000FDF782FB08B1FCF7AAFE42F2107011909B
:103B100011AB012203212B48FDF712FA08B1FCF783
:103B20009EFE41F64C50119011AB04220321254812
:103B3000FDF706FA08B1FCF792FE00200890642019
:103B4000099000200A904FF400400B9040100C9018
:103B500064200D9000200E904FF000400F90400820
:103B6000109008AA03211748FDF756F808B1FCF792
:103B700076FE002000900420019008200290002092
:103B8000039004900590069007906B464022032115
:103B90000C48FDF7EFFA08B1FCF761FE0020019038
:103BA00002906B46802203210648FDF7E3FA08B134
:103BB000FCF755FE0348FDF749F937B000BD00009A
:103BC00000680140BC00002010B51448144908608A
:103BD000144848600021124881600121C160002121
:103BE000016141618161C1610162FDF713FC08B1AE
:103BF000FCF735FE00210A48FDF789FB08B1FCF708
:103C00002EFE00210648FDF7B7FB08B1FCF727FEA2
:103C10004FF48000FDF7E4FB10BD00000078004089
:103C2000B80100200F06524010B518481849086026
:103C30004FF4E1304860002115488160C1600161A6
:103C40000C21416100218161C1610162416200205A
:103C50000F4988620846FEF731FF08B1FCF7FFFD07
:103C600000210B48FEF774FD08B1FCF7F8FD0021B8
:103C70000748FEF73EFD08B1FCF7F1FD0448FEF7EA
:103C80000FFD08B1FCF7EBFD10BD00000044004043
:103C90000402002000BFFEE700BFFEE700200CE0AA
:103CA000002106E00022064B03EBC0135A544A1CC5
:103CB000D1B28029F6DB421CD0B20828F0DB704775
:103CC000940200202DE9F04304460D4616461F4697
:103CD0007F2C01DDBDE8F0833F2D00DDFAE7A1195F
:103CE000802902DDC4F18001CEB2E919402902DD4C
:103CF000C5F14001CFB2284630E0234629E04FEA23
:103D0000E07C00EB5C7C4FEAEC0CDFF85C8008EBBD
:103D1000CC1C1CF803C002464FEAE07800EB587850
:103D20004FEAE808A0EBC8094FF0010808FA09F8C3
:103D30002CEA080C01464FEAE07800EB58784FEA8D
:103D4000E808DFF8249009EBC81808F803C0591CEC
:103D5000CBB2A1199942D2DC411CC8B2E919814207
:103D6000CBDC00BFB6E70000940200200CB50020B9
:103D700001900CE00020009002E00098401C0090B0
:103D80000098B0F57A7FF8D30198401C0190019813
:103D9000B0F57A7FEED30CBD10B5FFF7E7FFAE208C
:103DA00000F044F9D52000F041F9802000F03EF900
:103DB000A82000F03BF93F2000F038F9D32000F0B4
:103DC00035F9002000F032F9402000F02FF9A12051
:103DD00000F02CF9C82000F029F9DA2000F026F9CB
:103DE000122000F023F9812000F020F9CF2000F00C
:103DF0001DF9D92000F01AF9F12000F017F9DB20A5
:103E000000F014F9302000F011F9A42000F00EF9B0
:103E1000A62000F00BF98D2000F008F9142000F026
:103E200005F9AF2000F002F9FFF738FF00F0EAF8DB
:103E300010BD70B505460C4645F0B00000F0F6F830
:103E4000102141EA141000F0F1F804F00F0000F026
:103E5000EDF870BDF8B506460F4614461D46082D10
:103E60000CD1A4F120000E4901EB00101023082210
:103E700039460090304600F017F80FE0062D0DD1BE
:103E8000A4F1200000EB4000064901EB40000823AC
:103E9000062239460090304600F006F8F8BD0000D2
:103EA0003C7B00082C8100082DE9F04707460C46B2
:103EB00090469946DDF820A07F2F01DDBDE8F08710
:103EC0003F2C00DDFAE74B46424621463846FFF7D5
:103ED000F9FE002570E0002669E0B8197F2800DDB2
:103EE00067E0E11704EB517105EBE101072900DD03
:103EF000E4E72046E21704EB527205EBE202344B92
:103F000003EBC212BB19D25C2146E31704EB5373D7
:103F1000DB10A4EBC30305FB086C1AF80CC00CFA09
:103F200003FC42EA0C02E31704EB537305EBE303D3
:103F3000DFF89CC00CEBC31307EB060C03F80C2056
:103F4000E11704EB517105EBE101491C072900DD84
:103F50002BE02046E21704EB527205EBE202521C02
:103F60001B4B03EBC212BB19D25C2146E31704EBD7
:103F70005373DB10A4EBC303C3F1080305FB086C08
:103F80001AF80CC04CFA03FC42EA0C02E31704EBEB
:103F9000537305EBE3035B1CDFF834C00CEBC31376
:103FA00007EB060C03F80C2000BF701CC6B2464598
:103FB00093DB00BF681CC5B2A9F10100C11700EB7B
:103FC0005171012202EBE101A94284DC00BF75E7D7
:103FD000940200202DE9F0410646884615461F460A
:103FE000002409E02A5D04FB0761C8B23B46414654
:103FF000FFF730FF601CC4B2285D0028F2D1BDE895
:10400000F081000010B500240BE000212046FFF7EE
:1040100010FF054901EBC410802100F019F8601C65
:10402000C4B2082CF1DB10BD940200201CB504467C
:10403000002001908DF805400A20022301AA782172
:1040400000900248FDF748FA1CBD0000B8010020AE
:104050002DE9F84307460C4604F10108404601F0FB
:104060003BFC064640203070002503E0795D681C6B
:104070003154C5B2A542F9DB0A20631C32467821CF
:1040800000900448FDF728FA304601F0ABFBBDE88C
:10409000F8830000B801002070B5164DED6805F0FA
:1040A0000304144DED68C5F303156B1C022C0CD0F2
:1040B000032C09D1104DB5FBF3F50E4EF668C6F38F
:1040C000062605FB06F10AE000BF0C4DB5FBF3F533
:1040D000084EF668C6F3062605FB06F100BF00BFD2
:1040E000044DED68C5F341656D1C6A00B1FBF2F04B
:1040F00070BD00000010024040787D010024F400F3
:1041000000BF20214FF09040FCF726FDC82001F0B1
:1041100019FCF6E700BF80214FF09040FCF714FD3A
:1041200001280AD1002210211848FCF71FFD0022A7
:1041300020211648FCF71AFD23E080214FF0904023
:10414000FCF702FDE8B9012210211048FCF70EFD32
:10415000012220210D48FCF709FD0D480078401C84
:104160000B4908700846007802280ADB09480088D5
:10417000C830084908800846018807480068C0F828
:104180001C12012001F0DEFBC5E70000000800481A
:104190001E0000201C000020BC0000201FB508A34A
:1041A0000FCB8DE80F0000BF00230A2269460848A4
:1041B000006802F011FF322001F0C4FBF4E70000B8
:1041C000746869732069732074657374000000005B
:1041D000180000200EB500BF0A2269460D4800688D
:1041E00003F04CF801280AD1002405E01DF8041062
:1041F00009A000F053FE641C092CF7DB02E007A0C5
:1042000000F04CFE09A000F049FE322001F09AFBBC
:10421000E2E7000018000020256300006164766575
:104220006E74206572726F72000000000D0A00004B
:1042300010B5FDF769FA03F0ABF9012801D002F0DF
:10424000C7FD10BD00B593B0382105A8FCF78AF86A
:1042500014216846FCF786F80020FDF729FB0220B0
:104260000590C00108904020099002200C90022186
:104270000D9104210E9155210F9102211091119160
:10428000129105A8FDF73EFF08B1FCF7E8FA0F20F0
:1042900000900320019000200290039004900421DC
:1042A0006846FDF7A7FD08B1FCF7D9FA13B000BDC9
:1042B0000348006840F4700001490860704700003E
:1042C00088ED00E070B5456E2DB90125A0F86A5063
:1042D000A0F868501CE0082308240568AD68C5F301
:1042E00042610568AD686A0F0A4DAD5C15FB04F5C7
:1042F000094EB65C95FBF6F5A0F86A50054D6D5C6D
:1043000015FB03F5044E765C95FBF6F5A0F86850B6
:1043100070BD0000147B00081C7B000890F828107A
:1043200001F0010139B10168496821F40031C26A24
:1043300011430268516090F8281001F0020102292F
:1043400007D10168496821F48031026B114302688A
:10435000516090F8281001F00401042907D1016888
:10436000496821F48021426B11430268516090F842
:10437000281001F00801082907D10168496821F4D3
:104380000041826B11430268516090F8281001F0DF
:104390001001102907D10168896821F48051C26B8E
:1043A00011430268916090F8281001F02001202943
:1043B00007D10168896821F40051026C1143026839
:1043C000916090F8281001F04001402913D1016854
:1043D000496821F48011426C114302685160416CBC
:1043E000B1F5801F07D10168496821F4C001826CD2
:1043F00011430268516090F8281001F08001802973
:1044000007D10168496821F40021C26C1143026898
:104410005160704738B504460020C4F88C00FCF7A2
:10442000ABFB05462068006800F0080008280CD1A6
:104430006FF07E402B4600224FF400110090204682
:1044400000F0C2FC08B1032038BD2068006800F00D
:10445000040004280CD16FF07E402B4600224FF45C
:1044600080010090204600F0AFFC08B10320EBE78C
:104470002020C4F88400C4F888000020E06600BF53
:1044800084F8800000BF00BFDEE770B50546AC6A67
:104490000020A4F85E00A4F856002046FEF789F933
:1044A00070BD00000168096821F490710268116014
:1044B00001688968094A114002689160C16E01294A
:1044C00005D10168096821F01001026811602021FE
:1044D000C0F888100021C16601677047FEFFFFEF3A
:1044E00010B504462068006820F04000216808608C
:1044F0002020C4F88400002060672046FEF70AFCF4
:1045000010BD2DE9F0410446B4F86070D4F888007D
:10451000222837D12068406A86B2A56D06EA0700D6
:104520002880A06D801CA065B4F85E00401EA4F831
:104530005E00B4F85E0020BB2068006820F4907034
:10454000216808602068806820F001002168886088
:104550002020C4F8880000202067E06E01280BD1DD
:104560002068006820F0100021680860B4F85C1032
:104570002046FEF7BCF802E02046FEF75FFB002075
:10458000E06605E02068806940F0080021688861E5
:10459000BDE8F0812DE9F84F0446B4F860B020681A
:1045A000C5692068006800902068D0F808A0D4F899
:1045B0008800222871D1B4F8689074E02068406ABD
:1045C0001FFA80F8A76D08EA0B003880A06D801CE8
:1045D000A065B4F85E00401EA4F85E002068C569BE
:1045E00005F00700B0B305F0010060B1009800F4D9
:1045F000807040B1012021680862D4F88C0040F03E
:104600000100C4F88C0005F0020058B10AF0010066
:1046100040B1022021680862D4F88C0040F0040008
:10462000C4F88C0005F0040058B10AF0010040B154
:10463000042021680862D4F88C0040F00200C4F81D
:104640008C00D4F88C0028B12046FEF7B2F8002088
:10465000C4F88C00B4F85E0028BB2068006820F421
:1046600080702168086020688068214908402168BE
:1046700088602020C4F8880000202067E06E0128B0
:104680000CD12068006820F0100021680860B4F8A0
:104690005C102046FEF72BF803E021E02046FEF7F1
:1046A000CDFA0020E066B9F1000F03D005F020003C
:1046B000002883D1B4F85E60C6B1B4F86800B04297
:1046C00014DD2068806820F08050216888600948E7
:1046D00020672068006840F020002168086005E03D
:1046E0002068806940F0080021688861BDE8F88F83
:1046F000FEFFFFEF0345000870B50446B4F86060A4
:10470000D4F88800222837D12068406A85B2F0B2F8
:104710002840A16D0870A06D401CA065B4F85E0033
:10472000401EA4F85E00B4F85E0020BB206800685C
:1047300020F49070216808602068806820F00100F3
:10474000216888602020C4F8880000202067E06E7F
:1047500001280BD12068006820F010002168086053
:10476000B4F85C102046FDF7C2FF02E02046FEF7D9
:1047700065FA0020E06605E02068806940F00800E6
:104780002168886170BD00002DE9F05F0446B4F82F
:1047900060A02068C5692068D0F800B02068D0F813
:1047A0000890D4F88800222870D1B4F8688073E0AB
:1047B0002068406A87B20AF0FF003840A16D087097
:1047C000A06D401CA065B4F85E00401EA4F85E0019
:1047D0002068C56905F00700A8B305F0010058B1CD
:1047E0000BF4807040B1012021680862D4F88C007D
:1047F00040F00100C4F88C0005F0020058B109F047
:10480000010040B1022021680862D4F88C0040F019
:104810000400C4F88C0005F0040058B109F0010050
:1048200040B1042021680862D4F88C0040F00200F6
:10483000C4F88C00D4F88C0028B12046FDF7B9FFED
:104840000020C4F88C00B4F85E0028BB2068006823
:1048500020F4807021680860206880682149084041
:10486000216888602020C4F8880000202067E06E5E
:1048700001280CD12068006820F010002168086031
:10488000B4F85C102046FDF732FF03E021E020463B
:10489000FEF7D4F90020E066B8F1000F03D005F070
:1048A0002000002884D1B4F85E60C6B1B4F8680076
:1048B000B04214DD2068806820F080502168886054
:1048C000094820672068006840F0200021680860DF
:1048D00005E02068806940F0080021688861BDE833
:1048E000F09F0000FEFFFFEFF94600082DE9FE4FA4
:1048F000044600200290E5492068884200D100E08B
:1049000000BF2169A068084361690843E16940EA82
:10491000010820680068DE49084040EA0800216874
:1049200008602068406820F44050E168084321682E
:104930004860D4F81880D5492068884202D0206A9F
:1049400040EA080820688068D249084040EA080028
:10495000216888602068C06A20F00F00616A0843FF
:104960002168C86200BFCC492068884216D1CB4874
:10497000006800F0030030B1012808D0022804D0FC
:10498000032808D105E0012507E0022505E00425FC
:1049900003E0082501E0102500BF8DE0C049206834
:1049A000884216D1BD48006800F00C0030B10428E0
:1049B00008D0082804D00C2808D105E0002507E01D
:1049C000022505E0042503E0082501E0102500BFCD
:1049D00072E0B4492068884216D1B048006800F0FF
:1049E000300030B1102808D0202804D0302808D159
:1049F00005E0002507E0022505E0042503E0082581
:104A000001E0102500BF57E0A7492068884216D171
:104A1000A248006800F0C00030B1402808D08028CB
:104A200004D0C02808D105E0002507E0022505E0F4
:104A3000042503E0082501E0102500BF3CE09B4968
:104A40002068884219D19548006800F4407048B148
:104A5000B0F5807F0AD0B0F5007F05D0B0F5407F7B
:104A600008D105E0002507E0022505E0042503E064
:104A7000082501E0102500BF1EE084492068884217
:104A800019D18648006800F4406048B1B0F5806FE5
:104A90000AD0B0F5006F05D0B0F5406F08D105E041
:104AA000002507E0022505E0042503E0082501E0D4
:104AB000102500BF00E0102500BF7449206888421F
:104AC0005DD135B1022D08D0042D08D0082D0DD1AF
:104AD00009E0FDF7A7FA06460CE0754E0AE0FDF77F
:104AE000C5FA064606E04FF4004603E00026012022
:104AF000029000BF00BF002E10D06E49606A31F8EE
:104B00001000B6FBF0F9606800EB4000484503D8A0
:104B100060680003484502D201200290AAE065497E
:104B2000606A31F810C06246002330461946FBF730
:104B3000CFFB4FF480734FF0000CA0FB032B01FB65
:104B400003B100FB0C1061684908511840EB0C00E0
:104B5000CDE90010D4F804C062460023084601994C
:104B6000FBF7B6FB0746B7F5407F05D3B7F5801FC7
:104B700002D22068C7607DE0012002907AE0E069FF
:104B8000B0F5004F40D1092D17D2DFE805F0050937
:104B90000D160F1616161300FDF744FA064610E020
:104BA000FDF752FA06460CE0414E0AE0FDF75EFAC8
:104BB000064606E04FF4004603E00026012002907E
:104BC00000BF00BFFEB13B49606A31F81000B6FB80
:104BD000F0F04000616800EB5100B0FBF1F087B2EB
:104BE000102F0ED3B7F5803F0BD24FF6F07007EAC7
:104BF000000AC7F342004AEA000A2068C0F80CA085
:104C000038E00120029035E0092D17D2DFE805F0E9
:104C100005090D160F1616161300FDF703FA0646C2
:104C200010E0FDF711FA06460CE0214E0AE0FDF710
:104C30001DFA064606E04FF4004603E00026012078
:104C4000029000BF00BFAEB11A49606A31F810008F
:104C5000B6FBF0F0616800EB5100B0FBF1F087B2F9
:104C6000102F05D3B7F5803F02D22068C76001E05E
:104C7000012002900120A4F86A00A4F86800002036
:104C8000206760670298BDE8FE8F0000008000404A
:104C9000F369FFCFFFF4FF11003801408810024094
:104CA0000044004000480040004C004000500040DC
:104CB0000024F400FC7A000810B503469965A3F8B7
:104CC0005C20A3F85E200020186700BF9868B0F54C
:104CD000805F0AD1186920B940F2FF10A3F8600084
:104CE00020E0FF20A3F860001CE0986848B918692C
:104CF00018B9FF20A3F8600014E07F20A3F860003B
:104D000010E09868B0F1805F09D1186918B97F2068
:104D1000A3F8600006E03F20A3F8600002E0002056
:104D2000A3F8600000BF0020C3F88C002220C3F865
:104D300088001868806840F001001C68A060586E08
:104D4000B0F1005F20D1B3F8680090421CDC986895
:104D5000B0F5805F04D1186910B91748186701E0F1
:104D60001648186700BF002083F8800000BF18684D
:104D7000006840F480701C6820601868806840F00B
:104D800080501C68A06015E09868B0F5805F04D181
:104D9000186910B90A48186701E00A48186700BF87
:104DA000002083F8800000BF1868006840F490700D
:104DB0001C682060002010BD954500088947000848
:104DC00003450008F94600082DE9F04104460D4668
:104DD00017469846069E4AE0701C002847D0FBF70D
:104DE000CBFEA0EB0800B04200D8C6B9206800682E
:104DF00020F4D070216808602068806820F00100ED
:104E0000216888602020C4F88400C4F8880000BFAE
:104E1000002084F8800000BF0320BDE8F0812068F6
:104E2000006800F0040010B32068C069C0F3C0201F
:104E3000E8B14FF40060216808622068006820F43F
:104E4000D070216808602068806820F00100216827
:104E500088602020C4F88400C4F88800C4F88C005E
:104E600000BF002084F8800000BF0320D5E7206841
:104E7000C0692840A84201D1012000E00020B842CA
:104E8000AAD00020C9E7000010B50248FDF792FC47
:104E900010BD00000402002000BFFEE70FB4054B68
:104EA00010B503A9044A029800F0F8F810BC5DF8A8
:104EB00014FB0000CD570008B00000200248006835
:104EC000C0F30220704700000CED00E010B5002890
:104ED00004DB0A07130E054A135406E00A07140EF2
:104EE000034A00F00F031B1FD45410BD00E400E080
:104EF00018ED00E0EFF30580704702E008C8121FCC
:104F000008C1002AFAD170477047002001E001C1B2
:104F1000121F002AFBD170472DE9FF5F82B00021EC
:104F2000DDE90430020DDDF840B0034318D044F64B
:104F30001050A2F2FF3242431514119801281FD0DD
:104F4000A5EB0B00401C5FEA000A4FF000064E4F35
:104F5000DFF83891B046504615D5CAF1000413E089
:104F6000119801244AA3012801D16FEA0B0102988C
:104F7000119AC0E90031C0E9024206B0BDE8F09FD5
:104F8000CBF10000DFE704460021404A491842EB1C
:104F90000450CDE9001012E0E00707D032463B464E
:104FA00040464946FBF790FA8046894632463B46E2
:104FB00010461946FBF788FA06460F466410002C87
:104FC000EAD1DDE90401DDE90023BAF1000F06DAD8
:104FD000FBF77AFA42464B46FBF776FA05E0FBF719
:104FE000E5FA42464B46FBF7E1FA04460E4600223C
:104FF000284BFBF74BFB03D84FF0FF30014607E08F
:105000000022254B20463146FBF7B7F9FBF7FAFBA8
:10501000102409E0002C0ADB0A220023FBF758F9D0
:10502000039B30321A55641E50EA0102F2D1641C0F
:10503000039AC4F111031444119A012A03D00122E6
:1050400008430DD10AE0084304D000204FF0110BB3
:10505000119072E7A3EB0B056D1E0DE05B4504DDBF
:105060004FF0000205F1010504E003DA4FF0000201
:10507000A5F10105002AECD002981199C0E902318E
:10508000C0E9004579E70000000014400000F03F4F
:10509000300000000000F0430000E03F2DE9FF4F2A
:1050A00095B09B468946064600250FE2252877D114
:1050B00000242746F84A0121059400E0044316F82D
:1050C000013F203B01FA03F01042F7D130782A2843
:1050D00011D06FF02F033078A0F13002092A16D8D2
:1050E000059A44F0020402EB820203EB42021044F0
:1050F000761C0590EFE759F8042B0592002A03DA95
:10510000504244F40054059044F00204761C307878
:105110002E2816D116F8010F44F004042A280DD0C9
:105120006FF02F023078A0F13003092B09D807EB7C
:10513000870302EB4303C718761CF3E759F8047B97
:10514000761C30786C280FD006DC4C2817D06828E5
:105150000DD06A2814D104E0742810D07A280FD119
:105160000DE044F400140AE044F4801401E044F437
:1051700040147278824202D104F58014761C761CA9
:10518000307866280BD013DC582877D009DC00284B
:1051900075D04528F6D04628F4D047281AD19DE18D
:1051A00018E0632835D0642879D0652812D195E1BC
:1051B000702873D008DC6728F1D069286FD06E287A
:1051C0000DD06F2806D1B5E073282CD0752875D086
:1051D000782874D05A46179990476D1C75E1C4F32E
:1051E0000250022809D003280DD0D9F80010042855
:1051F0000DD00D6009F1040967E1D9F80010EA1734
:10520000C1E90052F6E7D9F800100D80F2E70D7001
:10521000F0E719F8041B8DF8001000208DF801004C
:10522000EA46012003E059F804AB4FF0FF30610774
:105230004FF0000102D40DE008F101018846B942A7
:105240000FDA8045F8DB1AF808100029F4D108E0DD
:1052500008F1010188468142FADB1AF8081000299A
:10526000F6D105985B46A0EB080721463846179A09
:1052700000F094FA284400EB080507E04DE029E12E
:105280000DE01AF8010B5A4617999047B8F101083A
:10529000F7D25B4621463846179A13E142E00A22CC
:1052A0000092C4F302524FF0000A022A08D059F8C3
:1052B00004CB032A4FEAEC710AD00DE029E02AE082
:1052C00009F1070121F00702F2E802C1914609E065
:1052D0000FFA8CFC4FEAEC71042A03D14FFA8CFCD4
:1052E0004FEAEC71002907DA0A460021DCF1000CD4
:1052F00061EB02012D2202E0220504D52B228DF85C
:105300000420012203E0E20701D02022F7E79046C3
:1053100059E00A2102E010220DE010214FF0000AAE
:1053200000910BE010224FF0000A44F0040408271B
:10533000009203E008224FF0000A0092C4F30252E8
:10534000022A05D059F804CB0021032A08D009E02D
:1053500009F1070121F00702F2E802C1914605E0D8
:105360001FFA8CFC042A01D10CF0FF0C4FF000084E
:10537000220728D5702806D0009B83F0100353EA3B
:105380000A0305D00EE040228DF80420012208E037
:105390005CEA010206D030228DF804208DF8050069
:1053A00002229046009B83F0080353EA0A030AD1C5
:1053B0005CEA010201D1620705D530228DF8042094
:1053C0004FF001087F1E582804D034A003900EA887
:1053D00002900DE036A0F9E753466046009AFAF7CE
:1053E00077FF84460398825C0298401E0290027008
:1053F0005CEA0100F0D1029806A9081A00F1200A1F
:10540000600702D524F4803400E00127574502DD0F
:10541000A7EB0A0000E0002000EB0A0100900598CD
:105420004144401A0590E00306D45B462146179A92
:10543000059800F0B3F90544002706E001A85A4694
:10544000C05D179990476D1C7F1C4745F6DBE00354
:105450000CD55B462146179A059800F09FF9054444
:1054600004E030205A46179990476D1C0099481E59
:1054700000900029F5DC08E0029802995A4600786D
:10548000491C0291179990476D1CBAF10001AAF1CD
:10549000010AF1DC65E100000928010030313233F6
:1054A0003435363738396162636465660000000060
:1054B000303132333435363738394142434445464A
:1054C0000000000000F058F90544761C30780028F0
:1054D0007FF4ECAD19B02846BDE8F08F620700D428
:1054E000062709F1070222F0070CFCE80223E14637
:1054F00003F000485FEA080C02D00FF2702C0DE0B8
:105500005FEA045C02D50FF2682C07E05FEAC47C16
:1055100002D00FF2602C01E0AFF2700C4FF0FF38B8
:1055200023F00043CDF850C065280CD006DC452898
:1055300009D046281DD047283DD13DE0662818D027
:1055400067287ED138E00021112F01DB112000E017
:10555000781CCDE9000106A90EA8FFF7DDFCDDE906
:105560000F010E9A03910021009207F1010A0491A4
:105570004DE04FF000400097CDE9011006A90EA8BC
:10558000FFF7CAFCDDE90F0203920E9B119900227E
:10559000DDF80CA00093049211B9791C00EB010A0C
:1055A000B7EB0A0004D4C0F1FF3007F1010A049000
:1055B000AAEB0700019044E0012F00DA0127002147
:1055C000112F01DD112000E03846CDE9000106A9C8
:1055D0000EA8FFF7A1FCDDE90F010E9A039100214F
:1055E00004910092BA4621070CD40399514500DA80
:1055F0008A46BAF1010F05DD009AAAF10101515C5A
:10560000302908D0B84202DA10F1040F06DA01217D
:10561000CDE9011015E0AAF10101E9E7002805DC58
:10562000049901440491AAEB000102E0411C514598
:1056300000DD8A460499401A401C01904FF000405A
:105640000290200704D40198504501DBCDF8048076
:1056500000208DF84F0002980DF14F07B0F1004F78
:1056600025D02B200E9002984FF0020800280CDA6B
:10567000404202902D200E9007E00A210298FBF78D
:105680001DF83031029007F8011DB8F10001A8F1B2
:105690000108F2DC02980028EFD1791E0E980870FC
:1056A000307800F0200040F0450007F8020D12A805
:1056B000C01B00F107081498007800B1012000EB2E
:1056C0000A01019801EBE07105984144401A401E1F
:1056D0000590E00306D45B462146179A059800F032
:1056E0005DF805441498007818B15A461799904708
:1056F0006D1CE00324D55B462146179A059800F0FF
:105700004DF805441CE00498002807DBDDE903019F
:10571000884203DD0098405C179901E0179930201A
:105720005A469047049805F10105401C04900198E1
:10573000401E019004D12E205A46179990476D1CA7
:10574000BAF10001AAF1010ADDDC05E017F8010B4E
:105750005A46179990476D1CB8F10001A8F101084D
:10576000F4DC5B462146179A0598ABE62D00000055
:105770002B000000200000002DE9F0410446002528
:105780001E461746880404D405E039462020B04759
:105790006D1C641EF9D52846BDE8F0812DE9F04165
:1057A000044600251E469046C80301D5302700E078
:1057B0002027880404D505E041463846B0476D1CD3
:1057C000641EF9D52846BDE8F081000013B50C46EB
:1057D00001231A4669460248FDF731FA00981CBDBC
:1057E0000402002010B5002821D0114B0022001F18
:1057F000196803E0814203D80A4649680029F9D1B3
:1058000052B11368841A9C4204D100681844106095
:10581000104602E0506000E0186039B102680B1ACF
:10582000934203D10B681A4402604968416010BD7D
:10583000B400002008B5FBF773FFFEF703FDFEF789
:1058400063F8FEF7E3F8FEF7BFF9FEF7EDF9012282
:1058500020214FF09040FBF789F94FF48011174851
:10586000FBF76AFC002220211548FBF77FF9FEF7C1
:1058700093FAFEF713FAFEF7C5FB01221021114837
:10588000FBF774F9012220210E48FBF76FF9002085
:1058900000F058F9012269460B48FDF79DF90BA06D
:1058A000FFF7FCFAC0210548FBF78EFC00F05AF820
:1058B000FDF7D4FF00F06CF800BFFEE7BC0000204D
:1058C0000004004800080048040200207379732097
:1058D000696E697400000000F0B50B30154D20F0C2
:1058E00007010024144A0FE003688B420BD38B425C
:1058F00005D95E1A43184768C3E9006700E04368AA
:10590000136002C004E0021D10680028ECD120469C
:10591000002802D1286808B10020F0BD064A0748D7
:105920001060074A121A22F00702C0E90024012081
:105930002860D7E7B8000020B40000206C1F0020CA
:105940006821002070B50546FFF7D4FA10B16FF05A
:10595000050404E0002415B1284601F05DF8204656
:1059600070BD000010B5FFF7C5FA10B16FF0050467
:1059700009E00648006820B90120044908600024B5
:1059800001E04FF0FF34204610BD000080000020F1
:1059900070B5FFF7AFFA10B16FF005041FE01148C2
:1059A0000068012819D100BF801F0021002804DBF6
:1059B0000A07130E0C4A135406E00A07150E0B4A89
:1059C00000F00F031B1FD55400BF00BF0220054984
:1059D000086001F09DF8002401E04FF0FF342046FC
:1059E00070BD00008000002000E400E018ED00E041
:1059F0002DE9F84305460E4614464FF00009FFF71F
:105A000079FA00283ED1002D3CD0002E3AD0471E16
:105A1000BCB1A06858B1E068502808D3206930B103
:105A200005FB06F06169814201D301270AE0A06805
:105A300040B9E06830B9206920B9606910B9002721
:105A400000E00027012F09D10020009031462846B0
:105A5000A368226901F003FA814606E02FB900220B
:105A60003146284601F0CEF98146B9F1000F09D040
:105A700014B1D4F8008001E04FF0000841464846D8
:105A800000F08EFF4846BDE8F8832DE9FF478046C9
:105A90008946144600200390FFF72CFA00284ED1C7
:105AA000B8F1000F4BD0802618258246471E44B31C
:105AB000206808B1D4F800A0A06900B1A5692DB193
:105AC000382D03D8207900F0010018B1002004B06F
:105AD000BDE8F087606908B160698608A06840B1D8
